:100000000C943F000C945C000C945C000C945C001D
:100010000C94D1030C945C000C945C000C945C0078
:100020000C945C000C945C000C945C000C945C00E0
:100030000C945C000C9472030C945C000C94C80249
:100040000C945C000C945C000C945C000C945C00C0
:100050000C945C000C945C000C945C000C945C00B0
:100060000C945C000C945C000C945C000C944403B5
:100070000C941E030C945C000C945C00AC041124E2
:100080001FBECFEFCDBFDFE3DEBF2AE3A0E0B8E3C2
:1000900001C01D92AA3AB207E1F710E0CFE3D0E029
:1000A00004C02197FE010E940905CE33D107C9F78C
:1000B0000E9402040C941E050C940000FC01508D5B
:1000C000418D252F30E0842F90E0821B930B541735
:1000D00010F0CF96089501970895FC0196898789BD
:1000E000981761F0A789AE0FBF2FB11D5B968C9159
:1000F00097899F5F9F73978B90E008958FEF9FEF95
:100100000895FC0196898789981731F08789E80F4F
:10011000F11D838D90E008958FEF9FEF0895FC010E
:1001200096892789892F90E0805C9F4F821B9109D7
:100130008F7399270895CF93DF93EC01E881F981BC
:100140000680F781E02D0995EC85FD8586818F730A
:100150008683EC85FD8585818F7585838F898E8B60
:100160001D8ADF91CF910895CF93DF93FC01908D8D
:10017000818DC485D585981306C08D818F7D8D8333
:10018000DF91CF910895A18DAE0FBF2FB11DA55A5C
:10019000BF4F9C91818D8F5F8F73818F80E48C83A3
:1001A000A485B58512969C93908D818D9813E8CF88
:1001B0000484F585E02D85818F7D8583E1CFDC0189
:1001C0001C96ED91FC910FB607FE07C0258125FF17
:1001D00004C020911101222321F0248125FD0C94DB
:1001E000B40008950F931F93CF93DF93EC0181E048
:1001F0008D8B988D898D981311C0EC85FD85848138
:1002000085FF0CC080E48483EC85FD85628381E0FA
:1002100090E0DF91CF911F910F910895062F188DD7
:100220001F5F1F73898D811304C0CE010E94DF0000
:10023000F9CFE88DEC0FFD2FF11DE55AFF4F00833C
:10024000188FEC85FD85858180628583E0CFCF9313
:10025000DF93EC018D89882361F0EC85FD85858134
:1002600085FD03C0848186FD04C0CE010E94DF00AD
:10027000F4CFDF91CF9108959FB7F89488E08093F1
:10028000840A80918E0A81FFFCCF80918D0AE091D3
:10029000A20AF091A30A20910B3A30910C3A4091B6
:1002A0000D3A50910E3A9FBF80FF07C0E730F1052D
:1002B00020F42F5F3F4F4F4F5F4FBF0176956795FB
:1002C000CF01860F911DE62FE695E695762F729564
:1002D0007F70E71BFF0B67FD3196E80FF91FA0E366
:1002E000B3E00E94F6046E0F7F1F811D911D0895DB
:1002F000AF92BF92CF92DF92EF92FF920F931F9334
:10030000CF93DF936C017B018B01040F151FEB0171
:100310005E01AE18BF08C017D10759F06991D60128
:10032000ED91FC910190F081E02DC6010995892B9A
:1003300079F7C501DF91CF911F910F91FF90EF9059
:10034000DF90CF90BF90AF90089581E00895E0E4F2
:10035000FAE01286138682E193E18487958781E033
:1003600085838081816080830895DC01ED91FC911B
:100370000088F189E02D23E030E00994FC01019030
:100380000020E9F73197AF01481B590BBC018FE002
:100390009AE30C9478018F929F92AF92BF920F9341
:1003A0001F93CF93DF93CDB7DEB7A197CDBFDEBF4D
:1003B00019A2423008F44AE08E010F5D1F4F842ECF
:1003C000912CB12CA12CA50194010E94D404E62FFC
:1003D000B901CA01EA30DCF4E05DD801EE938D0189
:1003E000232B242B252B79F790E080E0109719F030
:1003F000CD010E94BE01A196CDBFDEBFDF91CF919E
:100400001F910F91BF90AF909F908F900895E95CDE
:10041000E4CF8F929F92AF92BF92DF92EF92FF92C2
:100420000F931F93CF93DF93EC014A015B01E22E00
:100430008D89882339F0E881F9810288F389E02DDC
:10044000CE0109950C8910E0F12C811438EB93064C
:100450003BE0A306B10430F0B694A7949794879438
:1004600042E0F42E1D8AD090251160E078E689E8FC
:1004700099E0A50194010E94D404AD2DDD0CBB0BC5
:10048000BC5F0E940105DC01CB012BE0B595A7956F
:10049000979587952A95D1F72FB7F894EC85FD8528
:1004A000009761E0A607B10524F08FEF9FEFA0E071
:1004B000B0E080879187EC85FD85E782EC85FD853E
:1004C0008681897F806C8F298683EC85FD85858177
:1004D00080688583909101028B8980958923A8018A
:1004E000440F551FFA01E00FF11FEC0FFD1F90891B
:1004F000892B8093010286858C3028F590E0FC01E1
:10050000EE58F54730813F3FF1F0FC01EA59F547DD
:10051000E081A0E2EA9FF0011124FC5F865A954732
:10052000DC016C91B0E0A0E06F3F29F0CF01409674
:10053000DC01A60FB11D9FB7F89432838C918860BF
:100540008C9335839FBF040F151FC00FD11F8F855C
:100550008C3088F490E0FC01EE58F54730813F3F45
:1005600051F08A599547DC01EC91B0E2EB9FF00124
:100570001124FC5F31832FBFDF91CF911F910F9129
:10058000FF90EF90DF90BF90AF909F908F90089575
:100590001F920F920FB60F9211242F933F934F93F8
:1005A0005F936F938F939F93AF93BF938091073A1D
:1005B0009091083AA091093AB0910A3A4091053ACF
:1005C0005091063A9A01205D3C4F283E63E0360781
:1005D00028F0285E33400196A11DB11D2093053AF5
:1005E0003093063A8093073A9093083AA093093AD9
:1005F000B0930A3A80910B3A90910C3AA0910D3A3F
:10060000B0910E3A0196A11DB11D80930B3A9093C3
:100610000C3AA0930D3AB0930E3A81E080938D0A84
:10062000BF91AF919F918F916F915F914F913F914A
:100630002F910F900FBE0F901F9018951F920F9241
:100640000FB60F9211242F933F934F935F936F93A5
:100650007F938F939F93AF93BF93EF93FF938FE01D
:100660009AE30E94B400FF91EF91BF91AF919F91E7
:100670008F917F916F915F914F913F912F910F904B
:100680000FBE0F901F9018951F920F920FB60F92EA
:1006900011242F938F939F93EF93FF93E0911B3A35
:1006A000F0911C3A818181FD1BC090818091253A97
:1006B0008F5F8F732091263A821741F0E091253A9F
:1006C000F0E0E15FF54C938F8093253AFF91EF9135
:1006D0009F918F912F910F900FBE0F901F901895A3
:1006E0008081F4CF1F920F920FB60F9211242F9397
:1006F0003F934F935F936F937F938F939F93AF93AA
:10070000BF93EF93FF930F981092450A8091400A90
:100710008E7F8093400A2091003840914A0A509180
:100720004B0A8091033A9091043A01968F7799276A
:100730006091013A7091023A86179707F1F48AE8BE
:100740009AE80E94BE0187E89AE80E94BE011092D2
:10075000003881E08093460AFF91EF91BF91AF91FD
:100760009F918F917F916F915F914F913F912F91C9
:100770000F900FBE0F901F901895E091033AF091E3
:10078000043AEE0FFF1FEE0FFF1FEF5FF74C30E054
:1007900020833183428353838093033A9093043AB6
:1007A000D6CF1F920F920FB60F9211242F933F9323
:1007B0004F935F936F937F938F939F93AF93BF9369
:1007C000EF93FF9380910038811103C00F9A0E942C
:1007D000A701809100388F5F8093003881E080937B
:1007E0002904FF91EF91BF91AF919F918F917F91DC
:1007F0006F915F914F913F912F910F900FBE0F908E
:100800001F90189588ED90E084BF9093610083E578
:10081000809302068DE08093050680E280930306B4
:1008200081E0809300068093030A9EEF9093260A4E
:100830009093270A9BE09093000A2DEF31E02093DC
:10084000AE0A3093AF0A1092810A90E89093820A20
:1008500080938C0A81E18093800A78940E943C0105
:10086000EB0198EEC92E93E0D92EE12CF12C0E94D9
:100870003C016C1B7D0B683E734008F466C0C114DC
:10088000D104E104F10409F058C040E052EC61E009
:1008900070E08FE09AE30E94B5018EE79AE80E942B
:1008A000BE0187E89AE80E94BE01079A0F9888ED7A
:1008B00090E084BF9093610082E193E180934C0AC1
:1008C00090934D0A0E94A7018BE0809330044091E1
:1008D000033A5091043A2091013A3091023A81E072
:1008E00090E0452B11F090E080E08217930779F7B4
:1008F000E091013AF091023AEE0FFF1FEE0FFF1F59
:10090000EF5FF74C60817181C281D3818091013AA0
:100910009091023A01968F7799278093013A9093AC
:10092000023A90E080E04AE00E94CB01BE0190E0F4
:1009300080E04AE00E94CB01CACF81E0C81AD1080A
:10094000E108F108C851DC4F92CFC114D104E10491
:10095000F10409F08CCF99CFEFE0FAE31282138211
:1009600088EE93E0A0E0B0E084839583A683B7830C
:1009700084E49AE88083918380E098E08487958777
:1009800084E0868785E08787108A89E0818B88E00C
:10099000828B81E0838B148A158A168A178A108EBF
:1009A000118E8CE1828F0895A1E21A2EAA1BBB1B27
:1009B000FD010DC0AA1FBB1FEE1FFF1FA217B3072B
:1009C000E407F50720F0A21BB30BE40BF50B661F41
:1009D000771F881F991F1A9469F760957095809505
:1009E00090959B01AC01BD01CF0108950E940F05B8
:1009F000A59F900DB49F900DA49F800D911D112473
:100A00000895B7FF0C94F6040E94F604821B930B22
:100A10000895EE0FFF1F0590F491E02D0994A29F19
:100A2000B001B39FC001A39F700D811D1124911DC2
:100A3000B29F700D811D1124911D0895F894FFCF70
:100A400000000000F20078015E0027018F006D00B9
:100A50008100B50109029B00A501040506070302F8
:100A6000010001020300000000000101010100007B
:100A70000000102040800804020102040801737481
:100A8000617274696E67000D0A00517565756520A5
:050A900066756C6C00AE
:00000001FF
