:100000000C943F000C945C000C945C000C945C001D
:100010000C9485040C945C000C945C000C945C00C3
:100020000C945C000C945C000C945C000C945C00E0
:100030000C945C000C9426040C945C000C947C03DF
:100040000C945C000C945C000C945C000C945C00C0
:100050000C945C000C945C000C945C000C945C00B0
:100060000C945C000C945C000C945C000C94F80301
:100070000C94D2030C945C000C945C00D507112402
:100080001FBECFEFCDBFDFE3DEBF2AE3A0E0B8E3C2
:1000900001C01D92A13DB207E1F710E0CFE3D0E02F
:1000A00004C02197FE010E94E20ACE33D107C9F7AE
:1000B0000E94DA040C940A0B0C940000FB01A48546
:1000C000B585ED91FC9111970190F081E02D682F9D
:1000D000CD01099590E080E008959FB7F89488E0FD
:1000E0008093840A80918E0A81FFFCCF80918D0AD3
:1000F000E091A20AF091A30A2091143A3091153AA6
:100100004091163A5091173A9FBF80FF07C0E730E1
:10011000F10520F42F5F3F4F4F4F5F4FBF017695A2
:100120006795CF01860F911DE62FE695E695762F10
:1001300072957F70E71BFF0B67FD3196E80FF91F83
:10014000A0E3B3E00E94E80A6E0F7F1F811D911D9E
:100150000895AF92BF92CF92DF92EF92FF920F93EA
:100160001F93CF93DF936C017B018B01040F151F4D
:10017000EB015E01AE18BF08C017D10759F06991B5
:10018000D601ED91FC910190F081E02DC601099519
:10019000892B79F7C501DF91CF911F910F91FF90C6
:1001A000EF90DF90CF90BF90AF900895FC01508DFD
:1001B000418D252F30E0842F90E0821B930B541744
:1001C00010F0CF96089501970895FC0196898789CC
:1001D000981761F0A789AE0FBF2FB11D5B968C9168
:1001E00097899F5F9F73978B90E008958FEF9FEFA4
:1001F0000895FC0196898789981731F08789E80F5F
:10020000F11D838D90E008958FEF9FEF0895FC011D
:1002100096892789892F90E0805C9F4F821B9109E6
:100220008F7399270895CF93DF93EC01E881F981CB
:100230000680F781E02D0995EC85FD8586818F7319
:100240008683EC85FD8585818F7585838F898E8B6F
:100250001D8ADF91CF910895CF93DF93FC01908D9C
:10026000818DC485D585981306C08D818F7D8D8342
:10027000DF91CF910895A18DAE0FBF2FB11DA55A6B
:10028000BF4F9C91818D8F5F8F73818F80E48C83B2
:10029000A485B58512969C93908D818D9813E8CF97
:1002A0000484F585E02D85818F7D8583E1CFDC0198
:1002B0001C96ED91FC910FB607FE07C0258125FF26
:1002C00004C020911101222321F0248125FD0C94EA
:1002D0002C0108950F931F93CF93DF93EC0181E0DE
:1002E0008D8B988D898D981311C0EC85FD85848147
:1002F00085FF0CC080E48483EC85FD85628381E00A
:1003000090E0DF91CF911F910F910895062F188DE6
:100310001F5F1F73898D811304C0CE010E94570196
:10032000F9CFE88DEC0FFD2FF11DE55AFF4F00834B
:10033000188FEC85FD85858180628583E0CFCF9322
:10034000DF93EC018D89882361F0EC85FD85858143
:1003500085FD03C0848186FD04C0CE010E94570143
:10036000F4CFDF91CF91089581E00895CF92DF928D
:10037000EF92FF920F931F93CF93DF93CDB7DEB72A
:100380002597CDBFDEBF95E0E8E1F6E9DE011196E5
:1003900001900D929A95E1F7E1E0F0E0EC0FFD1F7E
:1003A000E20FF31F9081862B8923981323C04923E2
:1003B00090E080E0442341F040FBCC24C0F8D12CF5
:1003C0008C0D9D1D4695F6CF80FBEE24E0F8F12CB8
:1003D00081E090E0E016F10609F480E02596CDBFBB
:1003E000DEBFDF91CF911F910F91FF90EF90DF90D3
:1003F000CF90089585E090E0F1CFE0E4FAE0128636
:10040000138682E193E18487958781E085838081EB
:10041000816080830895DC01ED91FC910088F18971
:10042000E02D23E030E00994FC0101900020E9F781
:100430003197AF01481B590BBC0186E39AE30C943A
:10044000A900CF93DF930E941402EC0183EA96E99E
:100450000E9414028C0F9D1FDF91CF910895CF93BE
:10046000DF93CDB7DEB72E97CDBFDEBF8EE590E030
:1004700089879A871B861C8682E08C8386E39AE3B1
:100480008D879E87AE01495E5F4F6D897E89CE0163
:1004900001960E94FD072E96CDBFDEBFDF91CF9162
:1004A0000895EF92FF920F931F93CF93DF93042F42
:1004B0009F938F937F936F933F932F9386EA96E951
:1004C0009F938F9386E39AE39F938F930E942F02CB
:1004D00088E1E82E8AE3F82E8DB79EB70A968DBF85
:1004E0009EBFD0E0C0E010E0C017D10794F4F70140
:1004F000819191917F0168E78630910520F48356C0
:100500009946FC01608186E39AE30E946A01219684
:10051000EBCF85EA96E9DF91CF911F910F91FF9084
:10052000EF900C942102CF93DF9383EE96E99F9393
:100530008F9386E39AE39F938F930E942F02C8E1E3
:10054000DAE30F900F900F900F908991999168E7DF
:100550008630910520F483569946FC01608186E33C
:100560009AE30E946A01FAE3C633DF0771F785EA6E
:1005700096E9DF91CF910C9421028F929F92AF92D6
:10058000BF92DF92EF92FF920F931F93CF93DF936F
:10059000EC014A015B01E22E8D89882339F0E88164
:1005A000F9810288F389E02DCE0109950C8910E0CC
:1005B000F12C811438EB93063BE0A306B10430F034
:1005C000B694A7949794879442E0F42E1D8AD09015
:1005D000251160E078E689E899E0A50194010E9480
:1005E000C00AAD2DDD0CBB0BBC5F0E94F30ADC0121
:1005F000CB012BE0B595A795979587952A95D1F7CF
:100600002FB7F894EC85FD85009761E0A607B1054A
:1006100024F08FEF9FEFA0E0B0E080879187EC851A
:10062000FD85E782EC85FD858681897F806C8F2939
:100630008683EC85FD8585818068858390910102A4
:100640008B8980958923A801440F551FFA01E00F7B
:10065000F11FEC0FFD1F9089892B80930102868585
:100660008C3028F590E0FC01EB5CF94630813F3F8F
:10067000F1F0FC01E75DF946E081A0E2EA9FF001BC
:100680001124FC5F835E9946DC016C91B0E0A0E030
:100690006F3F29F0CF014096DC01A60FB11D9FB737
:1006A000F89432838C9188608C9335839FBF040FBC
:1006B000151FC00FD11F8F858C3088F490E0FC018E
:1006C000EB5CF94630813F3F51F0875D9946DC0194
:1006D000EC91B0E2EB9FF0011124FC5F31832FBF5E
:1006E000DF91CF911F910F91FF90EF90DF90BF901E
:1006F000AF909F908F9008951F920F920FB60F9218
:1007000011242F933F934F935F936F938F939F93F6
:10071000AF93BF938091103A9091113AA091123A01
:10072000B091133A40910E3A50910F3A9A01205DE0
:100730003C4F283E63E0360728F0285E33400196A0
:10074000A11DB11D20930E3A30930F3A8093103AB9
:100750009093113AA093123AB093133A8091143ABD
:100760009091153AA091163AB091173A0196A11DB1
:10077000B11D8093143A9093153AA093163AB09312
:10078000173A81E080938D0ABF91AF919F918F912D
:100790006F915F914F913F912F910F900FBE0F90EE
:1007A0001F9018951F920F920FB60F9211242F933E
:1007B0003F934F935F936F937F938F939F93AF93E9
:1007C000BF93EF93FF9386E39AE30E942C01FF917E
:1007D000EF91BF91AF919F918F917F916F915F91B9
:1007E0004F913F912F910F900FBE0F901F90189532
:1007F0001F920F920FB60F9211242F938F939F93F6
:10080000EF93FF93E091423AF091433A818181FD69
:100810001BC0908180914C3A8F5F8F7320914D3A2D
:10082000821741F0E0914C3AF0E0EA5CF54C938F8E
:1008300080934C3AFF91EF919F918F912F910F9060
:100840000FBE0F901F9018958081F4CF1F920F92CA
:100850000FB60F9211242F933F934F935F936F9393
:100860007F938F939F93AF93BF93EF93FF930F98D3
:100870001092450A8091400A8E7F8093400A209111
:1008800008384091043850910538609106387091CD
:10089000073880910B3A90910C3A01968F779927FF
:1008A000E091093AF0910A3A8E179F07D1F484E15A
:1008B00097E90E9421021092083881E08093460A4D
:1008C000FF91EF91BF91AF919F918F917F916F9128
:1008D0005F914F913F912F910F900FBE0F901F90FE
:1008E0001895E0910B3AF0910C3AEE0FFF1FEE0FC6
:1008F000FF1FE75FF74C30E020833183428353834F
:1009000080930B3A90930C3AD6CF1F920F920FB66A
:100910000F9211240F931F932F933F934F935F9345
:100920006F937F938F939F93AF93BF93EF93FF93B7
:1009300080910838811123C00F9A0E946D000091A8
:100940000038109101382091023830910338601B33
:10095000710B820B930B609304387093053880936E
:100960000638909307380E946D00609300387093AA
:10097000013880930238909303380E94FD018091E2
:1009800008388F5F8093083881E080932904FF91B5
:10099000EF91BF91AF919F918F917F916F915F91F7
:1009A0004F913F912F911F910F910F900FBE0F907C
:1009B0001F901895CF93DF93CDB7DEB7A197CDBF2A
:1009C000DEBF88ED90E084BF9093610083E5809363
:1009D00002068DE08093050680E28093030681E0A5
:1009E000809300068093030A9EEF9093260A9093CB
:1009F000270A9BE09093000A2DEF31E02093AE0A86
:100A00003093AF0A1092810A90E89093820A809303
:100A10008C0A81E18093800A78940E946D007B01AA
:100A200098EE892E93E0992EA12CB12C0E946D0096
:100A30006E197F09683E734008F4B7C081149104B1
:100A4000A104B10409F0A7C040E052EC61E070E0FD
:100A500086E39AE30E940B0288E097E90E94210254
:100A6000079A0F9888ED90E084BF9093610082E12F
:100A700093E180934C0A90934D0A0E94FD018BE014
:100A800080933004222423948BEA882E9924939413
:100A900020910B3A30910C3A8091093A90910A3AA0
:100AA00028173907A9F3E091093AF0910A3AEE0FB5
:100AB000FF1FEE0FFF1FE75FF74CC080D180E28081
:100AC000F3808091093A90910A3A01968F7799279D
:100AD0008093093A90930A3AC6010597059760F406
:100AE00040910D3A411168C020920D3A82E090E0A9
:100AF0008093183A9093193A80910D3A8F3041F6CD
:100B000046E2A42E4AE3B42E57E0C52ED12C312C58
:100B100080910D3A8C151D0409F00CF403C23501C7
:100B2000F50180819181059709F0EAC1E9EFEC0DAB
:100B3000A6E2BAE3412C512C550C2D913D9181E058
:100B40002530310509F480E0580E440C81E0213055
:100B5000310509F080E0480E86E39AE38A179B0787
:100B600059F7C601079730E8E32EF12C02C0F5943F
:100B7000E7948A95E2F7E83008F0BFC1F0E0ED5362
:100B8000FA4F0C94E20A07071D07330748075D0771
:100B90002C078B07160781E0881A9108A108B10875
:100BA00098E1E91A9CEFF90A41CF81149104A1045C
:100BB000B10409F03BCF48CFC7018A529F4FB4011F
:100BC0000E94AC0A842F90E0FC01EE0FFF1FEA5E4A
:100BD000F54C208131812230310509F150F4211585
:100BE000310569F02130310509F495C025E232E084
:100BF00027C02330310559F124303105B9F763306E
:100C0000710509F45FC098F56130710509F44FC0B2
:100C10006230710509F4B3C022EF31E011C06130D8
:100C200069F44F5F40930D3A880F991FFC01E85E0D
:100C3000F54C83E090E0808391835ECF2CEB31E034
:100C4000C701B6010E94510210920D3A55CF613092
:100C500059F44F5F40930D3A880F991FFC01E85EED
:100C6000F54C84E090E0E7CF25EC31E0E9CF65304A
:100C70007105D9F108F4A5C06630710569F6880FD1
:100C8000991FFC01E85EF54C25E030E020833183BC
:100C9000E1E0E40FF0E0EE0FFF1FE85EF54C20838B
:100CA000318383E0840F80930D3A4E5F98C04F5F8D
:100CB00040930D3A880F991FFC01E85EF54C608364
:100CC00071831ACF880F991FFC01E85EF54C85E00F
:100CD00090E08083918382E0840F80930D3A4F5F90
:100CE000E42FF0E0EE0FFF1F45C0880F991FFC01B5
:100CF000E85EF54C60837183E1E0E40FF0E0EE0F15
:100D0000FF1FE85EF54C6083718383E0840F80935E
:100D10000D3A4E5FE5CF64307105E1F148F4623081
:100D2000710511F16330710551F12EE132E088CF88
:100D30006630710509F458C008F443C06730710586
:100D4000A1F7880F991FFC01E85EF54C85E090E063
:100D500080839183E1E0E40FF0E0EE0FFF1FE85E97
:100D6000F54C808391839DCF4F5F40930D3A880F60
:100D7000991FFC01E85EF54C81E090E05CCF4F5F8D
:100D800040930D3A880F991FFC01E85EF54C1082E4
:100D90001182B2CE880F991FFC01E85EF54C85E008
:100DA00090E08083918382E0840F80930D3A4F5FBF
:100DB000E42FF0E0EE0FFF1FE85EF54C2083318357
:100DC0009BCE880F991FFC01E85EF54C85E090E012
:100DD0008083918382E0840F80930D3A4F5FE42FEC
:100DE000F0E0EE0FFF1FD1CF880F991FFC01E85EE6
:100DF000F54C25E030E020833183E1E0E40FF0E0C2
:100E0000EE0FFF1FE85EF54C208331837ECF00910B
:100E1000203A1091213A22E030E0442D6E2D852DAC
:100E20000E94B6018C01059709F067C00091223A33
:100E30001091233A23E030E046C000911E3A109111
:100E40001F3A21E030E0442D6E2D852D0E94B60121
:100E50008C01059709F051C00091203A1091213A78
:100E600022E030E01BC000911E3A10911F3A21E0B1
:100E700030E0442D6E2D852D0E94B6018C01059722
:100E8000E1F50091203A1091213A22E030E029C0AA
:100E900000911E3A10911F3A21E030E0442D6E2D52
:100EA000852D0E94B6018C01059739F50091223AF3
:100EB0001091233A23E030E014C000911E3A1091C3
:100EC0001F3A21E030E0442D6E2D852D0E94B601A1
:100ED0008C01059791F40091243A1091253A24E071
:100EE00030E0442D6E2D852D0E94B6018C010597B2
:100EF00021F40E94930210E000E0F50100831183C9
:100F0000330CF2E0AF0EB11CF3018081380EFFEF1D
:100F1000CF1ADF0AFDCD0091203A1091213A22E04C
:100F200030E0D1CF37FC08C0632D86E39AE30E94FE
:100F30006A0110920D3AACCD80EA831578F0832DCA
:100F40008058990BFC01EE0FFF1FE55AF94680818E
:100F50009181009771F30E941402EBCF81E197E930
:100F60000E941402432D50E070E060E019A2FE01DF
:100F7000B196DB01CA018F709927AA27BB2794E09D
:100F800076956795579547959A95D1F78A305CF491
:100F9000805D8293411551056105710551F73097C8
:100FA00041F2CF01D8CF895CF4CFE6E3FAE31282B5
:100FB000138288EE93E0A0E0B0E084839583A6835B
:100FC000B78385E496E98083918380E098E0848705
:100FD000958784E0868785E08787108A89E0818B02
:100FE00088E0828B81E0838B148A158A168A178A9F
:100FF000108E118E8CE1828F0895ABE0B0E0E3E0BB
:10100000F8E00C947B0A7C013B018A01FC0116820A
:101010001782838181FFC8C1CE0101965C01F7016F
:101020009381F30193FD859193FF81913F01882383
:1010300009F453C1853239F493FD859193FF819171
:101040003F01853229F4B70190E00E94ED09E7CF16
:10105000912C212C312CFFE1F31538F08B3211F15A
:1010600090F4803209F1833229F137FC3CC020ED45
:10107000280F2A3050F536FE20C08AE0989E200DB9
:101080001124922E06C08D3291F0803371F768944E
:1010900030F8F30193FD859193FF81913F01811118
:1010A000DACF21C0689431F8689432F8F2CF6894AE
:1010B00033F8EFCF689434F8ECCFEAE02E9E200DA1
:1010C0001124222E689435F8E4CF8E3229F436FCB0
:1010D00004C1689436F8DDCF8C3619F4689437F87B
:1010E000D8CF8836B1F2982F9F7D95549330E0F099
:1010F0008336A1F18337C1F1833509F063C028013C
:10110000F2E04F0E511CF801C080D180692D70E0D3
:1011100036FC02C06FEF7FEFC6010E94D7094C0179
:10112000689437F882010AC00C5F1F4FFFE3F98310
:1011300088248394912C6501E89437F833FE2DC000
:10114000522C8114910471F5552009F468CFB70130
:1011500080E290E00E94ED095A94F6CFF801808178
:1011600089830E5F1F4FE4CF2801F2E04F0E511C20
:10117000F801C080D180692D70E036FC02C06FEFAD
:101180007FEFC6010E94E2094C018201D5CFB70171
:1011900080E290E00E94ED092A942814190409F0D5
:1011A000B0F7CECFF60137FC859137FE81916F0104
:1011B000B70190E00E94ED0951105A94F1E08F1AA6
:1011C0009108BFCF843619F0893609F077C0F8014D
:1011D00037FE6BC060817181828193810C5F1F4FEC
:1011E000F32DFF763F2E97FF09C09095809570955F
:1011F00061957F4F8F4F9F4F689437F82AE030E01A
:10120000A5010E941D0AC82ECA188C2C432C36FE3C
:101210000CC0E89440F8C91440F434FE05C032FC18
:1012200003C0F32DFE7E4F2E892C44FE95C0FE0197
:10123000EC0DF11D8081803309F087C0242D297EBB
:10124000422E842D8870582E43FC95C040FE8FC0DE
:101250009C2C821418F42C0C922C981844FE91C0EB
:10126000B70180E390E00E94ED0942FE09C088E7E3
:1012700090E041FE02C088E590E0B7010E94ED09D0
:10128000C91408F48AC0CA94D12C9FEFC91AD90A8C
:10129000CA0CDB1CF60182916F01B70190E00E943D
:1012A000ED09AC14BD04B1F74FCF60817181072EF9
:1012B000000C880B990B0E5F1F4F92CFD32CE89434
:1012C000D4F82AE030E0853739F1232D297FD22E5A
:1012D0008F3601F148F48835A9F0F70186819781AE
:1012E0002B96E2E10C94940A803749F08837A9F7ED
:1012F000D4FE02C06894D2F820E130E00DC06894BA
:10130000D4F8F6CF34FE03C0822F8660D82E20E1B9
:1013100032E002C028E030E0F801D7FE0FC0608163
:101320007181828193810C5F1F4FA5010E941D0A6C
:10133000C82ECA183D2CE89437F867CF60817181B8
:1013400090E080E00E5F1F4FF0CF42FC02C083941C
:1013500078CF8394839475CF842D867809F471CFE8
:10136000F6CFB70180E290E00E94ED0983948214E9
:10137000C0F3512C73CF522C5818821408F46ECF3E
:10138000F8CF842D867809F47BCF8BE241FE80E292
:1013900047FC8DE2B70190E071CFB70180E390E0A8
:1013A0000E94ED099A946CCF8FEF9FEF99CFFC01CB
:1013B0000590615070400110D8F7809590958E0F80
:1013C0009F1F0895FC016150704001900110D8F7F3
:1013D000809590958E0F9F1F08950F931F93CF9325
:1013E000DF93182F092FEB018B8181FD09C01FEFBF
:1013F0000FEF812F902FDF91CF911F910F910895C3
:1014000082FF14C02E813F818C819D81281739076E
:101410003CF4E881F981CF01019688839983108398
:101420008E819F8101968E839F83E3CFE885F98526
:10143000812F0995892BA1F3DACFFA01AA27283049
:1014400051F1203181F1E8946F936E7F6E5F7F4F91
:101450008F4F9F4FAF4FB1E03ED0B4E03CD0670F0D
:10146000781F891F9A1FA11D680F791F8A1F911D60
:10147000A11D6A0F711D811D911DA11D20D009F4B0
:1014800068943F912AE0269F11243019305D3193F2
:10149000DEF6CF010895462F4770405D4193B3E0DB
:1014A0000FD0C9F7F6CF462F4F70405D4A3318F082
:1014B000495D31FD4052419302D0A9F7EACFB4E033
:1014C000A6959795879577956795BA95C9F70097EB
:1014D0006105710508959B01AC010A2E069457958C
:1014E000479537952795BA95C9F7620F731F841FE3
:1014F000951FA01D08952F923F924F925F926F9279
:101500007F928F929F92AF92BF92CF92DF92EF9293
:10151000FF920F931F93CF93DF93CDB7DEB7CA1B14
:10152000DB0BCDBFDEBF09942A88398848885F84E9
:101530006E847D848C849B84AA84B984C884DF8073
:10154000EE80FD800C811B81AA81B981CE0FD11D57
:10155000CDBFDEBFED010895AA1BBB1B51E107C043
:10156000AA1FBB1FA617B70710F0A61BB70B881F33
:10157000991F5A95A9F780959095BC01CD010895C2
:10158000A1E21A2EAA1BBB1BFD010DC0AA1FBB1F87
:10159000EE1FFF1FA217B307E407F50720F0A21BF9
:1015A000B30BE40BF50B661F771F881F991F1A9466
:1015B00069F760957095809590959B01AC01BD0190
:1015C000CF010895EE0FFF1F0590F491E02D0994CF
:1015D0000E94FB0AA59F900DB49F900DA49F800DC3
:1015E000911D11240895B7FF0C94E80A0E94E80A9F
:1015F000821B930B0895A29FB001B39FC001A39FCC
:10160000700D811D1124911DB29F700D811D11243B
:08161000911D0895F894FFCF2D
:101618000078E6D58B0405060703020100010203E2
:10162800000000000001010101000000001020403E
:10163800800804020102040801000000006A01A9F0
:1016480000D6009F010701E500F9000B02BD021357
:1016580001B401E1962097239726972A972E973170
:1016680097359738973C974097449748974B974FAB
:1016780097539756975A975D976097639767976BB5
:10168800976F977297759779977D978197859788C0
:10169800978C97909730315353534D0D0A000A7029
:1016A800726F746F636F6C206572726F723A206C20
:1016B800696E653A2025642C2070756C7365733AE1
:1016C8002025642C206D6963726F733A2025642C81
:1016D8002073796D626F6C733A20000A756E7265BB
:1016E800636F76657261626C652064617461206500
:1016F80072726F723A2073796D626F6C733A200060
:101708007374617274696E67005C78000A5175655C
:1017180075652066756C6C00C3B700C39700E288D6
:101728009A00E288AB00CEA300E296B600CF800014
:10173800E2888200E289A400E289A500E289A0008B
:10174800CEB100E2869200E2869000C2B500E29037
:101758008A00C2B000C2AB00C2BB00E28AA600E2A7
:10176800828100E2828200C2B200C2B300E1B5A267
:1017780000E2B1BC00E280A500E281B100CAB2007B
:0C178800E1B58F00E281BF00E288A00004
:00000001FF
