:100000000C943F000C945C000C945C000C945C001D
:100010000C9456040C945C000C945C000C945C00F2
:100020000C945C000C945C000C945C000C945C00E0
:100030000C945C000C94F7030C945C000C944D033E
:100040000C945C000C945C000C945C000C945C00C0
:100050000C945C000C945C000C945C000C945C00B0
:100060000C945C000C945C000C945C000C94C90330
:100070000C94A3030C945C000C945C005B061124AC
:100080001FBECFEFCDBFDFE3DEBF2AE3A0E0B8E3C2
:1000900001C01D92A13DB207E1F710E0CFE3D0E02F
:1000A00004C02197FE010E947B09CE33D107C9F716
:1000B0000E94AB040C9490090C940000FB01A485F1
:1000C000B585ED91FC9111970190F081E02D682F9D
:1000D000CD01099590E080E00895FC01508D418D9F
:1000E000252F30E0842F90E0821B930B541710F0E3
:1000F000CF96089501970895FC01968987899817EE
:1001000061F0A789AE0FBF2FB11D5B968C919789C7
:100110009F5F9F73978B90E008958FEF9FEF0895F7
:10012000FC0196898789981731F08789E80FF11DBE
:10013000838D90E008958FEF9FEF0895FC019689DD
:100140002789892F90E0805C9F4F821B91098F73D4
:1001500099270895CF93DF93EC01E881F981068018
:10016000F781E02D0995EC85FD8586818F73868367
:10017000EC85FD8585818F7585838F898E8B1D8AA2
:10018000DF91CF910895CF93DF93FC01908D818D06
:10019000C485D585981306C08D818F7D8D83DF91B1
:1001A000CF910895A18DAE0FBF2FB11DA55ABF4F9E
:1001B0009C91818D8F5F8F73818F80E48C83A48568
:1001C000B58512969C93908D818D9813E8CF048409
:1001D000F585E02D85818F7D8583E1CFDC011C963F
:1001E000ED91FC910FB607FE07C0258125FF04C0E5
:1001F00020911101222321F0248125FD0C94C300BC
:1002000008950F931F93CF93DF93EC0181E08D8BC3
:10021000988D898D981311C0EC85FD85848185FFAB
:100220000CC080E48483EC85FD85628381E090E0EE
:10023000DF91CF911F910F910895062F188D1F5FA9
:100240001F73898D811304C0CE010E94EE00F9CF87
:10025000E88DEC0FFD2FF11DE55AFF4F0083188F3D
:10026000EC85FD85858180628583E0CF682F86E3FC
:100270009AE30C940101CF93DF93EC018D898823DD
:1002800061F0EC85FD85858185FD03C0848186FD57
:1002900004C0CE010E94EE00F4CFDF91CF9108950B
:1002A0009FB7F89488E08093840A80918E0A81FF3A
:1002B000FCCF80918D0AE091A20AF091A30A2091CF
:1002C000143A3091153A4091163A5091173A9FBF1F
:1002D00080FF07C0E730F10520F42F5F3F4F4F4FFD
:1002E0005F4FBF0176956795CF01860F911DE62F71
:1002F000E695E695762F72957F70E71BFF0B67FDFD
:100300003196E80FF91FA0E3B3E00E9468096E0F71
:100310007F1F811D911D0895AF92BF92CF92DF92F2
:10032000EF92FF920F931F93CF93DF936C017B01AA
:100330008B01040F151FEB015E01AE18BF08C0173B
:10034000D10759F06991D601ED91FC910190F081AE
:10035000E02DC6010995892B79F7C501DF91CF9171
:100360001F910F91FF90EF90DF90CF90BF90AF90D3
:10037000089581E00895E0E4FAE01286138682E1B0
:1003800093E18487958781E0858380818160808384
:100390000895DC01ED91FC910088F189E02D23E0C6
:1003A00030E00994FC0101900020E9F73197AF019A
:1003B000481B590BBC0186E39AE30C948C018F9285
:1003C0009F92AF92BF920F931F93CF93DF93CDB7BE
:1003D000DEB7A197CDBFDEBF19A2423008F44AE0D4
:1003E0008E010F5D1F4F842E912CB12CA12CA501E5
:1003F00094010E944609E62FB901CA01EA30DCF4F3
:10040000E05DD801EE938D01232B242B252B79F76A
:1004100090E080E0109719F0CD010E94D201A196E2
:10042000CDBFDEBFDF91CF911F910F91BF90AF90F5
:100430009F908F900895E95CE4CFCF93DF930E9463
:10044000D201EC0188E693E90E94D2018C0F9D1F36
:10045000DF91CF910895CF93DF93CDB7DEB72E977D
:10046000CDBFDEBF8EE590E089879A871B861C860C
:1004700082E08C8386E39AE38D879E87AE01495E96
:100480005F4F6BE673E9CE0101960E9483062E96BC
:10049000CDBFDEBFDF91CF910895EF92FF920F9312
:1004A0001F93CF93DF93042F9F938F937F936F932B
:1004B0003F932F938BE693E99F938F9386E39AE381
:1004C0009F938F930E942B0288E1E82E8AE3F82EF7
:1004D0008DB79EB70A968DBF9EBFD0E0C0E010E0FA
:1004E000C017D1078CF4F701819191917F0186307B
:1004F000910540F48E599C46FC0180810E94360192
:100500002196EECF88E7FACF8AE693E9DF91CF9183
:100510001F910F91FF90EF900C941D028F929F926C
:10052000AF92BF92DF92EF92FF920F931F93CF9300
:10053000DF93EC014A015B01E22E8D89882339F0BB
:10054000E881F9810288F389E02DCE0109950C89B3
:1005500010E0F12C811438EB93063BE0A306B104C4
:1005600030F0B694A7949794879442E0F42E1D8AB5
:10057000D090251160E078E689E899E0A501940122
:100580000E944609AD2DDD0CBB0BBC5F0E947309B8
:10059000DC01CB012BE0B595A795979587952A951A
:1005A000D1F72FB7F894EC85FD85009761E0A60799
:1005B000B10524F08FEF9FEFA0E0B0E08087918736
:1005C000EC85FD85E782EC85FD858681897F806CE1
:1005D0008F298683EC85FD85858180688583909150
:1005E00001028B8980958923A801440F551FFA01C8
:1005F000E00FF11FEC0FFD1F9089892B8093010202
:1006000086858C3028F590E0FC01EA5AFC46308162
:100610003F3FF1F0FC01E65BFC46E081A0E2EA9F8F
:10062000F0011124FC5F825C9C46DC016C91B0E01F
:10063000A0E06F3F29F0CF014096DC01A60FB11D6D
:100640009FB7F89432838C9188608C9335839FBFD9
:10065000040F151FC00FD11F8F858C3088F490E0D8
:10066000FC01EA5AFC4630813F3F51F0865B9C46D4
:10067000DC01EC91B0E2EB9FF0011124FC5F3183CF
:100680002FBFDF91CF911F910F91FF90EF90DF90DF
:10069000BF90AF909F908F9008951F920F920FB6CA
:1006A0000F9211242F933F934F935F936F938F93E8
:1006B0009F93AF93BF938091103A9091113AA0917C
:1006C000123AB091133A40910E3A50910F3A9A0172
:1006D000205D3C4F283E63E0360728F0285E33401B
:1006E0000196A11DB11D20930E3A30930F3A8093CD
:1006F000103A9093113AA093123AB093133A809122
:10070000143A9091153AA091163AB091173A019681
:10071000A11DB11D8093143A9093153AA093163AF7
:10072000B093173A81E080938D0ABF91AF919F916A
:100730008F916F915F914F913F912F910F900FBECD
:100740000F901F9018951F920F920FB60F921124C1
:100750002F933F934F935F936F937F938F939F93C9
:10076000AF93BF93EF93FF9386E39AE30E94C30096
:10077000FF91EF91BF91AF919F918F917F916F9179
:100780005F914F913F912F910F900FBE0F901F904F
:1007900018951F920F920FB60F9211242F938F93DB
:1007A0009F93EF93FF93E091423AF091433A818116
:1007B00081FD1BC0908180914C3A8F5F8F73209197
:1007C0004D3A821741F0E0914C3AF0E0EA5CF54C8A
:1007D000938F80934C3AFF91EF919F918F912F913E
:1007E0000F900FBE0F901F9018958081F4CF1F922D
:1007F0000F920FB60F9211242F933F934F935F9355
:100800006F937F938F939F93AF93BF93EF93FF93D8
:100810000F981092450A8091400A8E7F8093400A7B
:10082000209108384091043850910538609106387D
:100830007091073880910B3A90910C3A01968F771E
:100840009927E091093AF0910A3A8E179F07D1F45F
:1008500080EB93E90E941D021092083881E080939A
:10086000460AFF91EF91BF91AF919F918F917F9138
:100870006F915F914F913F912F910F900FBE0F900D
:100880001F901895E0910B3AF0910C3AEE0FFF1F74
:10089000EE0FFF1FE75FF74C30E020833183428388
:1008A000538380930B3A90930C3AD6CF1F920F92BA
:1008B0000FB60F9211240F931F932F933F934F93D3
:1008C0005F936F937F938F939F93AF93BF93EF93B8
:1008D000FF9380910838811123C00F9A0E94500124
:1008E000009100381091013820910238309103387E
:1008F000601B710B820B930B609304387093053867
:1009000080930638909307380E9450016093003816
:100910007093013880930238909303380E94BB0192
:10092000809108388F5F8093083881E08093290494
:10093000FF91EF91BF91AF919F918F917F916F91B7
:100940005F914F913F912F911F910F910F900FBE8B
:100950000F901F90189588ED90E084BF90936100F0
:1009600083E5809302068DE08093050680E2809304
:10097000030681E0809300068093030A9EEF909324
:10098000260A9093270A9BE09093000A2DEF31E00E
:100990002093AE0A3093AF0A1092810A90E89093A8
:1009A000820A80938C0A81E18093800A78940E9465
:1009B0005001EB0128EEC22E23E0D22EE12CF12CC7
:1009C0000E9450016C1B7D0B683E734008F4B2C05E
:1009D000C114D104E104F10409F0A4C040E052ECD8
:1009E00061E070E086E39AE30E94C90187EA93E937
:1009F0000E941D02079A0F9888ED90E084BF9093A3
:100A0000610082E193E180934C0A90934D0A0E9429
:100A1000BB018BE080933004D3E02D2E312C15E008
:100A2000E12EF12CCC24C394D12C84E0482E512CFF
:100A300092E0692E712C20910B3A30910C3A809102
:100A4000093A90910A3A28173907A9F3E091093A2F
:100A5000F0910A3AEE0FFF1FEE0FFF1FE75FF74C12
:100A600000811181C281D3818091093A90910A3A23
:100A700001968F7799278093093A90930A3AB801A3
:100A800090E080E04AE00E94DF0180E20E943601AF
:100A9000BE0190E080E04AE00E94DF0188E693E931
:100AA0000E94D20148015E0105501109053011056F
:100AB00058F440910D3A411144C0E1E0E0930D3A01
:100AC0006092183A7092193A80910D3A8F3009F07D
:100AD000B2CFC8E1DAE3899199918630910508F0A7
:100AE000E8C08E599C46FC0180810E94360186E355
:100AF0009AE38C179D0779F780E20E943601E6E2BF
:100B0000FAE380E090813296880F890FCE17DF07D5
:100B1000C9F70E9436018AE693E90E941D021092ED
:100B20000D3A89CF81E0C81AD108E108F108C8510F
:100B3000DC4F46CFC114D104E104F10409F040CFE9
:100B40004DCFCE018A529F4F6BEA71E00E9432096D
:100B5000842F90E0FC01EE0FFF1FEA5EF54C208130
:100B6000318122303105E9F050F42115310569F069
:100B70002130310509F45EC029E131E021C0233084
:100B8000310529F124303105B9F76230710509F4D6
:100B900074C068F56130710509F441C024EF30E09C
:100BA0000FC0613059F44F5F40930D3A880F991F81
:100BB000FC01E85EF54C2082318286CF2CEC30E0DF
:100BC000C501B4010E944D0210920D3A7DCF6130F3
:100BD00059F44F5F40930D3A880F991FFC01E85E6E
:100BE000F54C4082518270CF25ED30E0E9CF633083
:100BF000710509F44DC06430710581F6880F991FA5
:100C0000FC01E85EF54CE082F18282E0840F809383
:100C10000D3A4F5FE42FF0E0EE0FFF1F34C04F5F3F
:100C200040930D3A880F991FFC01E85EF54C6083F4
:100C300071834ACF6330710501F130F46230710580
:100C400089F022E131E0BCCF6430710509F16530F3
:100C50007105B9F7880F991FFC01E85EF54C6083B8
:100C60007183D3CF4F5F40930D3A880F991FFC01DA
:100C7000E85EF54CC082D18227CF4F5F40930D3A9A
:100C8000880F991FFC01E85EF54C108211821CCF81
:100C9000880F991FFC01E85EF54CE082F18282E04A
:100CA000840F80930D3A4F5FE42FF0E0EE0FFF1FAB
:100CB000DFCF88E71ACFE6E3FAE31282138288EEE9
:100CC00093E0A0E0B0E084839583A683B78388E2B5
:100CD00093E98083918380E098E08487958784E01E
:100CE000868785E08787108A89E0818B88E0828B00
:100CF00081E0838B148A158A168A178A108E118ECA
:100D00008CE1828F0895ABE0B0E0E9E8F6E00C9466
:100D100001097C013B018A01FC0116821782838153
:100D200081FFC8C1CE0101965C01F7019381F301F7
:100D300093FD859193FF81913F01882309F453C16D
:100D4000853239F493FD859193FF81913F0185327E
:100D500029F4B70190E00E947308E7CF912C212C71
:100D6000312CFFE1F31538F08B3211F190F4803221
:100D700009F1833229F137FC3CC020ED280F2A30DD
:100D800050F536FE20C08AE0989E200D1124922E48
:100D900006C08D3291F0803371F7689430F8F3011A
:100DA00093FD859193FF81913F018111DACF21C09D
:100DB000689431F8689432F8F2CF689433F8EFCF42
:100DC000689434F8ECCFEAE02E9E200D1124222EF8
:100DD000689435F8E4CF8E3229F436FC04C1689467
:100DE00036F8DDCF8C3619F4689437F8D8CF8836CA
:100DF000B1F2982F9F7D95549330E0F08336A1F1A6
:100E00008337C1F1833509F063C02801F2E04F0E4A
:100E1000511CF801C080D180692D70E036FC02C001
:100E20006FEF7FEFC6010E945D084C01689437F8B0
:100E300082010AC00C5F1F4FFFE3F983882483946B
:100E4000912C6501E89437F833FE2DC0522C8114A3
:100E5000910471F5552009F468CFB70180E290E064
:100E60000E9473085A94F6CFF801808189830E5F3F
:100E70001F4FE4CF2801F2E04F0E511CF801C08053
:100E8000D180692D70E036FC02C06FEF7FEFC601A4
:100E90000E9468084C018201D5CFB70180E290E042
:100EA0000E9473082A942814190409F0B0F7CECFD1
:100EB000F60137FC859137FE81916F01B70190E013
:100EC0000E94730851105A94F1E08F1A9108BFCF15
:100ED000843619F0893609F077C0F80137FE6BC007
:100EE00060817181828193810C5F1F4FF32DFF76AA
:100EF0003F2E97FF09C090958095709561957F4F23
:100F00008F4F9F4F689437F82AE030E0A5010E9488
:100F1000A308C82ECA188C2C432C36FE0CC0E894AB
:100F200040F8C91440F434FE05C032FC03C0F32D70
:100F3000FE7E4F2E892C44FE95C0FE01EC0DF11D66
:100F40008081803309F087C0242D297E422E842D94
:100F50008870582E43FC95C040FE8FC09C2C821494
:100F600018F42C0C922C981844FE91C0B70180E321
:100F700090E00E94730842FE09C088E790E041FEBD
:100F800002C088E590E0B7010E947308C91408F414
:100F90008AC0CA94D12C9FEFC91AD90ACA0CDB1C8B
:100FA000F60182916F01B70190E00E947308AC14C2
:100FB000BD04B1F74FCF60817181072E000C880B03
:100FC000990B0E5F1F4F92CFD32CE894D4F82AE0F0
:100FD00030E0853739F1232D297FD22E8F3601F16C
:100FE00048F48835A9F0F701868197812B96E2E1D4
:100FF0000C941A09803749F08837A9F7D4FE02C04B
:101000006894D2F820E130E00DC06894D4F8F6CFAF
:1010100034FE03C0822F8660D82E20E132E002C069
:1010200028E030E0F801D7FE0FC060817181828135
:1010300093810C5F1F4FA5010E94A308C82ECA18F8
:101040003D2CE89437F867CF6081718190E080E0B3
:101050000E5F1F4FF0CF42FC02C0839478CF839481
:10106000839475CF842D867809F471CFF6CFB701BC
:1010700080E290E00E94730883948214C0F3512CA4
:1010800073CF522C5818821408F46ECFF8CF842DE9
:10109000867809F47BCF8BE241FE80E247FC8DE24B
:1010A000B70190E071CFB70180E390E00E94730830
:1010B0009A946CCF8FEF9FEF99CFFC010590615010
:1010C00070400110D8F7809590958E0F9F1F08955E
:1010D000FC016150704001900110D8F78095909507
:1010E0008E0F9F1F08950F931F93CF93DF93182F99
:1010F000092FEB018B8181FD09C01FEF0FEF812FBD
:10110000902FDF91CF911F910F91089582FF14C00E
:101110002E813F818C819D81281739073CF4E8811D
:10112000F981CF0101968883998310838E819F81F5
:1011300001968E839F83E3CFE885F985812F0995FA
:10114000892BA1F3DACFFA01AA27283051F12031F7
:1011500081F1E8946F936E7F6E5F7F4F8F4F9F4F4B
:10116000AF4FB1E03ED0B4E03CD0670F781F891F8D
:101170009A1FA11D680F791F8A1F911DA11D6A0F5B
:10118000711D811D911DA11D20D009F468943F910E
:101190002AE0269F11243019305D3193DEF6CF010D
:1011A0000895462F4770405D4193B3E00FD0C9F7D3
:1011B000F6CF462F4F70405D4A3318F0495D31FD40
:1011C0004052419302D0A9F7EACFB4E0A695979593
:1011D000879577956795BA95C9F700976105710569
:1011E00008959B01AC010A2E0694579547953795B3
:1011F0002795BA95C9F7620F731F841F951FA01D0D
:1012000008952F923F924F925F926F927F928F92AA
:101210009F92AF92BF92CF92DF92EF92FF920F9385
:101220001F93CF93DF93CDB7DEB7CA1BDB0BCDBFC8
:10123000DEBF09942A88398848885F846E847D845B
:101240008C849B84AA84B984C884DF80EE80FD806E
:101250000C811B81AA81B981CE0FD11DCDBFDEBF0C
:10126000ED010895AA1BBB1B51E107C0AA1FBB1FBC
:10127000A617B70710F0A61BB70B881F991F5A9522
:10128000A9F780959095BC01CD010895A1E21A2E91
:10129000AA1BBB1BFD010DC0AA1FBB1FEE1FFF1F1A
:1012A000A217B307E407F50720F0A21BB30BE40B6A
:1012B000F50B661F771F881F991F1A9469F76095B1
:1012C0007095809590959B01AC01BD01CF0108956B
:1012D0000E948109A59F900DB49F900DA49F800D41
:1012E000911D11240895B7FF0C9468090E946809A4
:1012F000821B930B0895EE0FFF1F0590F491E02DD4
:101300000994A29FB001B39FC001A39F700D811DDE
:101310001124911DB29F700D811D1124911D0895FE
:04132000F894FFCF6F
:101324000000000001018C016D003B019E007C0067
:101334009000C9018E02AA00B90104050607030240
:10134400010001020300000000000101010100008E
:10135400000010204080080402010204080130311A
:101364005353534D0D0A0070726F746F636F6C208A
:101374006572726F723A206C696E653A2025642C2E
:101384002070756C7365733A2025642C206D696335
:10139400726F733A2025642C2073796D626F6C73BD
:1013A4003A20007374617274696E670051756575D3
:0713B400652066756C6C00FA
:00000001FF
