:100000000C943F000C945C000C945C000C945C001D
:100010000C94B1040C945C000C945C000C945C0097
:100020000C945C000C945C000C945C000C945C00E0
:100030000C945C000C9452040C945C000C94A80387
:100040000C945C000C945C000C945C000C945C00C0
:100050000C945C000C945C000C945C000C945C00B0
:100060000C945C000C945C000C945C000C942404D4
:100070000C94FE030C945C000C945C00C3071124E8
:100080001FBECFEFCDBFDFE3DEBF2AE3A0E0B8E3C2
:1000900001C01D92A33DB207E1F710E0CFE3D0E02D
:1000A00004C02197FE010E94D00ACE33D107C9F7C0
:1000B0000E9406050C94F80A0C940000FB01A4852C
:1000C000B585ED91FC9111970190F081E02D682F9D
:1000D000CD01099590E080E008959FB7F89488E0FD
:1000E0008093840A80918E0A81FFFCCF80918D0AD3
:1000F000E091A20AF091A30A2091163A3091173AA2
:100100004091183A5091193A9FBF80FF07C0E730DD
:10011000F10520F42F5F3F4F4F4F5F4FBF017695A2
:100120006795CF01860F911DE62FE695E695762F10
:1001300072957F70E71BFF0B67FD3196E80FF91F83
:10014000A0E3B3E00E94D60A6E0F7F1F811D911DB0
:100150000895CF92DF92EF92FF92CF93DF936B01DE
:100160007C010E946D00EB010E946D006C1B7D0BF9
:10017000683E7340A0F0C114D104E104F10439F4E5
:10018000DF91CF91FF90EF90DF90CF90089581E0C5
:10019000C81AD108E108F108C851DC4FE5CFC114F5
:1001A000D104E104F10401F7EBCFAF92BF92CF92FB
:1001B000DF92EF92FF920F931F93CF93DF936C0127
:1001C0007B018B01040F151FEB015E01AE18BF0808
:1001D000C017D10759F06991D601ED91FC910190BA
:1001E000F081E02DC6010995892B79F7C501DF91D2
:1001F000CF911F910F91FF90EF90DF90CF90BF9024
:10020000AF900895FC01508D418D252F30E0842F53
:1002100090E0821B930B541710F0CF96089501972E
:100220000895FC0196898789981761F0A789AE0F18
:10023000BF2FB11D5B968C9197899F5F9F73978BA2
:1002400090E008958FEF9FEF0895FC0196898789CC
:10025000981731F08789E80FF11D838D90E008959C
:100260008FEF9FEF0895FC0196892789892F90E0F1
:10027000805C9F4F821B91098F7399270895CF93BC
:10028000DF93EC01E881F9810680F781E02D099583
:10029000EC85FD8586818F738683EC85FD85858160
:1002A0008F7585838F898E8B1D8ADF91CF910895FD
:1002B000CF93DF93FC01908D818DC485D5859813F4
:1002C00006C08D818F7D8D83DF91CF910895A18DA3
:1002D000AE0FBF2FB11DA55ABF4F9C91818D8F5F6F
:1002E0008F73818F80E48C83A485B58512969C934F
:1002F000908D818D9813E8CF0484F585E02D85815C
:100300008F7D8583E1CFDC011C96ED91FC910FB6CA
:1003100007FE07C0258125FF04C02091110122237B
:1003200021F0248125FD0C94580108950F931F930B
:10033000CF93DF93EC0181E08D8B988D898D98139D
:1003400011C0EC85FD85848185FF0CC080E4848329
:10035000EC85FD85628381E090E0DF91CF911F9174
:100360000F910895062F188D1F5F1F73898D8113BC
:1003700004C0CE010E948301F9CFE88DEC0FFD2F60
:10038000F11DE55AFF4F0083188FEC85FD858581AF
:1003900080628583E0CFCF93DF93EC018D89882342
:1003A00061F0EC85FD85858185FD03C0848186FD36
:1003B00004C0CE010E948301F4CFDF91CF91089554
:1003C00081E00895CF92DF92EF92FF920F931F93F7
:1003D000CF93DF93CDB7DEB72597CDBFDEBF95E0D6
:1003E000E4EFF5E9DE01119601900D929A95E1F79F
:1003F000E1E0F0E0EC0FFD1FE20FF31F9081862B90
:100400008923981323C0492390E080E0442341F0DE
:1004100040FBCC24C0F8D12C8C0D9D1D4695F6CF09
:1004200080FBEE24E0F8F12C81E090E0E016F1068C
:1004300009F480E02596CDBFDEBFDF91CF911F91FB
:100440000F91FF90EF90DF90CF90089585E090E0BE
:10045000F1CFE0E4FAE01286138682E193E184872B
:10046000958781E085838081816080830895DC01A8
:10047000ED91FC910088F189E02D23E030E00994B2
:10048000FC0101900020E9F73197AF01481B590B9F
:10049000BC0188E39AE30C94D500CF93DF930E94CC
:1004A0004002EC018BE397E90E9440028C0F9D1FF4
:1004B000DF91CF910895CF93DF93CDB7DEB72E971D
:1004C000CDBFDEBF8EE590E089879A871B861C86AC
:1004D00082E08C8388E39AE38D879E87AE01495E34
:1004E0005F4F6D897E89CE0101960E94EB072E96A3
:1004F000CDBFDEBFDF91CF910895EF92FF920F93B2
:100500001F93CF93DF93042F9F938F937F936F93CA
:100510003F932F938EE397E99F938F9388E39AE31A
:100520009F938F930E945B028AE1E82E8AE3F82E64
:100530008DB79EB70A968DBF9EBFD0E0C0E010E099
:10054000C017D10794F4F701819191917F0168E779
:100550008630910520F48B5C9846FC01608188E32D
:100560009AE30E9496012196EBCF8DE397E9DF9104
:10057000CF911F910F91FF90EF900C944D02CF936C
:10058000DF938BE797E99F938F9388E39AE39F9399
:100590008F930E945B02CAE1DAE30F900F900F90F5
:1005A0000F908991999168E78630910520F48B5CD2
:1005B0009846FC01608188E39AE30E949601FAE381
:1005C000C833DF0771F78DE397E9DF91CF910C9482
:1005D0004D028F929F92AF92BF92DF92EF92FF9265
:1005E0000F931F93CF93DF93EC014A015B01E22E3F
:1005F0008D89882339F0E881F9810288F389E02D1B
:10060000CE0109950C8910E0F12C811438EB93068A
:100610003BE0A306B10430F0B694A7949794879476
:1006200042E0F42E1D8AD090251160E078E689E83A
:1006300099E0A50194010E94AE0AAD2DDD0CBB0B23
:10064000BC5F0E94E10ADC01CB012BE0B595A795C8
:10065000979587952A95D1F72FB7F894EC85FD8566
:10066000009761E0A607B10524F08FEF9FEFA0E0AF
:10067000B0E080879187EC85FD85E782EC85FD857C
:100680008681897F806C8F298683EC85FD858581B5
:1006900080688583909101028B8980958923A801C8
:1006A000440F551FFA01E00FF11FEC0FFD1F908959
:1006B000892B8093010286858C3028F590E0FC011F
:1006C000EF5EF94630813F3FF1F0FC01EB5FF94608
:1006D000E081A0E2EA9FF0011124FC5F87509A4676
:1006E000DC016C91B0E0A0E06F3F29F0CF014096B3
:1006F000DC01A60FB11D9FB7F89432838C918860FE
:100700008C9335839FBF040F151FC00FD11F8F859A
:100710008C3088F490E0FC01EF5EF94630813F3F79
:1007200051F08B5F9946DC01EC91B0E2EB9FF00158
:100730001124FC5F31832FBFDF91CF911F910F9167
:10074000FF90EF90DF90BF90AF909F908F900895B3
:100750001F920F920FB60F9211242F933F934F9336
:100760005F936F938F939F93AF93BF938091123A50
:100770009091133AA091143AB091153A4091103AE1
:100780005091113A9A01205D3C4F283E63E03607B4
:1007900028F0285E33400196A11DB11D2093103A28
:1007A0003093113A8093123A9093133AA093143AEB
:1007B000B093153A8091163A9091173AA091183A51
:1007C000B091193A0196A11DB11D8093163A9093EC
:1007D000173AA093183AB093193A81E080938D0AA2
:1007E000BF91AF919F918F916F915F914F913F9189
:1007F0002F910F900FBE0F901F9018951F920F9280
:100800000FB60F9211242F933F934F935F936F93E3
:100810007F938F939F93AF93BF93EF93FF9388E35F
:100820009AE30E945801FF91EF91BF91AF919F9180
:100830008F917F916F915F914F913F912F910F9089
:100840000FBE0F901F9018951F920F920FB60F9228
:1008500011242F938F939F93EF93FF93E091443A4A
:10086000F091453A818181FD1BC0908180914E3A83
:100870008F5F8F7320914F3A821741F0E0914E3A8B
:10088000F0E0E85CF54C938F80934E3AFF91EF9146
:100890009F918F912F910F900FBE0F901F901895E1
:1008A0008081F4CF1F920F920FB60F9211242F93D5
:1008B0003F934F935F936F937F938F939F93AF93E8
:1008C000BF93EF93FF930F981092450A8091400ACF
:1008D0008E7F8093400A20910838409104385091CF
:1008E0000538609106387091073880910B3A9091E5
:1008F0000C3A01968F779927E091093AF0910A3ADC
:100900008E179F07D1F483EA97E90E944D02109257
:10091000083881E08093460AFF91EF91BF91AF9133
:100920009F918F917F916F915F914F913F912F9107
:100930000F900FBE0F901F901895E0910B3AF09119
:100940000C3AEE0FFF1FEE0FFF1FE75FF74C30E092
:10095000208331834283538380930B3A90930C3AE4
:10096000D6CF1F920F920FB60F9211240F931F93A1
:100970002F933F934F935F936F937F938F939F93A7
:10098000AF93BF93EF93FF9380910838811123C0F9
:100990000F9A0E946D00009100381091013820914B
:1009A000023830910338601B710B820B930B6093FC
:1009B00004387093053880930638909307380E9466
:1009C0006D006093003870930138809302389093E3
:1009D00003380E942902809108388F5F809308387D
:1009E00081E080932904FF91EF91BF91AF919F9196
:1009F0008F917F916F915F914F913F912F911F91B7
:100A00000F910F900FBE0F901F901895CF93DF930B
:100A1000CDB7DEB7A197CDBFDEBF88ED90E084BF34
:100A20009093610083E5809302068DE08093050634
:100A300080E28093030681E0809300068093030A9E
:100A40009EEF9093260A9093270A9BE09093000ACA
:100A50002DEF31E02093AE0A3093AF0A1092810A55
:100A600090E89093820A80938C0A81E18093800AB7
:100A7000789468EE73E080E090E00E94A90040E086
:100A800052EC61E070E088E39AE30E943702079A33
:100A90008091020488608093020488E080931304AC
:100AA00064E670E080E090E00E94A900139B9EC085
:100AB00081E090E080930D3A90930E3A0F9888ED84
:100AC00090E084BF9093610082E193E180934C0AAF
:100AD00090934D0A0E9429028BE0809330042224D7
:100AE000239485E0C82ED12C20910B3A30910C3AFA
:100AF0008091093A90910A3A28173907A9F3E091B1
:100B0000093AF0910A3AEE0FFF1FEE0FFF1FE75F61
:100B1000F74C80809180A280B3808091093A9091B7
:100B20000A3A01968F7799278093093A90930A3A67
:100B3000C4010597059760F440910F3A41115BC0DD
:100B400020920F3A82E090E080931A3A90931B3AF9
:100B500080910F3A8F3041F628E2822E2AE3922EBE
:100B600037E0A32EB12C312C80910F3A8A151B044B
:100B700009F00CF4DBC13401F40180819181059707
:100B800009F0C2C1E9EFEA0DA8E2BAE3412C512C09
:100B9000550C2D913D9181E02530310509F480E01F
:100BA000580E440C81E02130310509F080E0480EF8
:100BB000FAE3A833BF0761F7C501079790E8E92E6C
:100BC000F12C02C0F594E7948A95E2F7E83008F03A
:100BD00098C1F0E0E251FA4F0C94D00A0B072107BC
:100BE00037074C07610730078F071A0710920D3A35
:100BF00010920E3A63CFC5018A529F4F6BEA71E0A3
:100C00000E949A0A842F90E0FC01EE0FFF1FE85E1D
:100C1000F54C208131812230310509F150F4211544
:100C2000310569F02130310509F491C024E932E041
:100C300027C02330310559F124303105B9F763302D
:100C4000710509F45DC098F56130710509F44DC076
:100C50006230710509F49DC021E632E011C06130B7
:100C600069F44F5F40930F3A880F991FFC01E65ECD
:100C7000F54C83E090E0808391836ACF2BE232E0F1
:100C8000C501B4010E947D0210920F3A61CF61301C
:100C900059F44F5F40930F3A880F991FFC01E65EAD
:100CA000F54C84E090E0E7CF24E332E0E9CF653013
:100CB0007105B9F108F48DC06630710569F6880FC9
:100CC000991FFC01E65EF54CC082D182E1E0E40FA1
:100CD000F0E0EE0FFF1FE65EF54CC082D18283E0AC
:100CE000840F80930F3A4E5F80C04F5F40930F3A5E
:100CF000880F991FFC01E65EF54C6083718328CF55
:100D0000880F991FFC01E65EF54CC082D18282E01B
:100D1000840F80930F3A4F5FE42FF0E0EE0FFF1F38
:100D200033C0880F991FFC01E65EF54C6083718328
:100D3000E1E0E40FF0E0EE0FFF1FE65EF54C6083AC
:100D4000718383E0840F80930F3A4E5FE5CF643068
:100D5000710551F148F46230710581F0633071051D
:100D6000C1F02DE832E08CCF6630710509F442C045
:100D700080F16730710509F4A2CFF3CF4F5F409344
:100D80000F3A880F991FFC01E65EF54C81E090E078
:100D900072CF4F5F40930F3A880F991FFC01E65EB8
:100DA000F54C10821182D4CE880F991FFC01E65EAB
:100DB000F54CC082D18282E0840F80930F3A4F5F5E
:100DC000E42FF0E0EE0FFF1FE65EF54C2083318349
:100DD000BFCE880F991FFC01E65EF54CC082D18220
:100DE00082E0840F80930F3A4F5FE42FF0E0EE0F24
:100DF000FF1FD5CF880F991FFC01E65EF54CC0821E
:100E0000D182E1E0E40FF0E0EE0FFF1FE65EF54C6B
:100E1000C082D18296CF0091223A1091233A22E0EB
:100E200030E0442D6E2D852D0E94E2018C01059746
:100E300009F067C00091243A1091253A23E030E090
:100E400046C00091203A1091213A21E030E0442D33
:100E50006E2D852D0E94E2018C01059709F051C08D
:100E60000091223A1091233A22E030E01BC0009119
:100E7000203A1091213A21E030E0442D6E2D852D4D
:100E80000E94E2018C010597E1F50091223A109150
:100E9000233A22E030E029C00091203A1091213A13
:100EA00021E030E0442D6E2D852D0E94E2018C0161
:100EB000059739F50091243A1091253A23E030E066
:100EC00014C00091203A1091213A21E030E0442DE5
:100ED0006E2D852D0E94E2018C01059791F4009101
:100EE000263A1091273A24E030E0442D6E2D852DCE
:100EF0000E94E2018C01059721F40E94BF0210E0DC
:100F000000E0F40100831183330CF2E08F0E911C9A
:100F1000F3018081380EFFEFAF1ABF0A25CE009192
:100F2000223A1091233A22E030E0D1CF37FE06C0BA
:100F300080910D3A90910E3A892B41F4632D88E30C
:100F40009AE30E94960110920F3ACECD8FEF381699
:100F500079F0832D8058990BFC01EE0FFF1FE95C9F
:100F6000F94680819181009771F30E944002EBCF96
:100F700080EA97E90E94400219A286E488A38F8F35
:100F8000CE014F96F2CFE8E3FAE31282138288EEA5
:100F900093E0A0E0B0E084839583A683B78381E2E9
:100FA00096E98083918380E098E08487958784E048
:100FB000868785E08787108A89E0818B88E0828B2D
:100FC00081E0838B148A158A168A178A108E118EF7
:100FD0008CE1828F0895ABE0B0E0E1EFF7E00C9494
:100FE000690A7C013B018A01FC0116821782838118
:100FF00081FFC8C1CE0101965C01F7019381F30125
:1010000093FD859193FF81913F01882309F453C19A
:10101000853239F493FD859193FF81913F018532AB
:1010200029F4B70190E00E94DB09E7CF912C212C35
:10103000312CFFE1F31538F08B3211F190F480324E
:1010400009F1833229F137FC3CC020ED280F2A300A
:1010500050F536FE20C08AE0989E200D1124922E75
:1010600006C08D3291F0803371F7689430F8F30147
:1010700093FD859193FF81913F018111DACF21C0CA
:10108000689431F8689432F8F2CF689433F8EFCF6F
:10109000689434F8ECCFEAE02E9E200D1124222E25
:1010A000689435F8E4CF8E3229F436FC04C1689494
:1010B00036F8DDCF8C3619F4689437F8D8CF8836F7
:1010C000B1F2982F9F7D95549330E0F08336A1F1D3
:1010D0008337C1F1833509F063C02801F2E04F0E78
:1010E000511CF801C080D180692D70E036FC02C02F
:1010F0006FEF7FEFC6010E94C5094C01689437F875
:1011000082010AC00C5F1F4FFFE3F9838824839498
:10111000912C6501E89437F833FE2DC0522C8114D0
:10112000910471F5552009F468CFB70180E290E091
:101130000E94DB095A94F6CFF801808189830E5F03
:101140001F4FE4CF2801F2E04F0E511CF801C08080
:10115000D180692D70E036FC02C06FEF7FEFC601D1
:101160000E94D0094C018201D5CFB70180E290E006
:101170000E94DB092A942814190409F0B0F7CECF95
:10118000F60137FC859137FE81916F01B70190E040
:101190000E94DB0951105A94F1E08F1A9108BFCFD9
:1011A000843619F0893609F077C0F80137FE6BC034
:1011B00060817181828193810C5F1F4FF32DFF76D7
:1011C0003F2E97FF09C090958095709561957F4F50
:1011D0008F4F9F4F689437F82AE030E0A5010E94B6
:1011E0000B0AC82ECA188C2C432C36FE0CC0E8946F
:1011F00040F8C91440F434FE05C032FC03C0F32D9E
:10120000FE7E4F2E892C44FE95C0FE01EC0DF11D93
:101210008081803309F087C0242D297E422E842DC1
:101220008870582E43FC95C040FE8FC09C2C8214C1
:1012300018F42C0C922C981844FE91C0B70180E34E
:1012400090E00E94DB0942FE09C088E790E041FE81
:1012500002C088E590E0B7010E94DB09C91408F4D8
:101260008AC0CA94D12C9FEFC91AD90ACA0CDB1CB8
:10127000F60182916F01B70190E00E94DB09AC1486
:10128000BD04B1F74FCF60817181072E000C880B30
:10129000990B0E5F1F4F92CFD32CE894D4F82AE01D
:1012A00030E0853739F1232D297FD22E8F3601F199
:1012B00048F48835A9F0F701868197812B96E2E101
:1012C0000C94820A803749F08837A9F7D4FE02C00F
:1012D0006894D2F820E130E00DC06894D4F8F6CFDD
:1012E00034FE03C0822F8660D82E20E132E002C097
:1012F00028E030E0F801D7FE0FC060817181828163
:1013000093810C5F1F4FA5010E940B0AC82ECA18BB
:101310003D2CE89437F867CF6081718190E080E0E0
:101320000E5F1F4FF0CF42FC02C0839478CF8394AE
:10133000839475CF842D867809F471CFF6CFB701E9
:1013400080E290E00E94DB0983948214C0F3512C68
:1013500073CF522C5818821408F46ECFF8CF842D16
:10136000867809F47BCF8BE241FE80E247FC8DE278
:10137000B70190E071CFB70180E390E00E94DB09F4
:101380009A946CCF8FEF9FEF99CFFC01059061503D
:1013900070400110D8F7809590958E0F9F1F08958B
:1013A000FC016150704001900110D8F78095909534
:1013B0008E0F9F1F08950F931F93CF93DF93182FC6
:1013C000092FEB018B8181FD09C01FEF0FEF812FEA
:1013D000902FDF91CF911F910F91089582FF14C03C
:1013E0002E813F818C819D81281739073CF4E8814B
:1013F000F981CF0101968883998310838E819F8123
:1014000001968E839F83E3CFE885F985812F099527
:10141000892BA1F3DACFFA01AA27283051F1203124
:1014200081F1E8946F936E7F6E5F7F4F8F4F9F4F78
:10143000AF4FB1E03ED0B4E03CD0670F781F891FBA
:101440009A1FA11D680F791F8A1F911DA11D6A0F88
:10145000711D811D911DA11D20D009F468943F913B
:101460002AE0269F11243019305D3193DEF6CF013A
:101470000895462F4770405D4193B3E00FD0C9F700
:10148000F6CF462F4F70405D4A3318F0495D31FD6D
:101490004052419302D0A9F7EACFB4E0A6959795C0
:1014A000879577956795BA95C9F700976105710596
:1014B00008959B01AC010A2E0694579547953795E0
:1014C0002795BA95C9F7620F731F841F951FA01D3A
:1014D00008952F923F924F925F926F927F928F92D8
:1014E0009F92AF92BF92CF92DF92EF92FF920F93B3
:1014F0001F93CF93DF93CDB7DEB7CA1BDB0BCDBFF6
:10150000DEBF09942A88398848885F846E847D8488
:101510008C849B84AA84B984C884DF80EE80FD809B
:101520000C811B81AA81B981CE0FD11DCDBFDEBF39
:10153000ED010895AA1BBB1B51E107C0AA1FBB1FE9
:10154000A617B70710F0A61BB70B881F991F5A954F
:10155000A9F780959095BC01CD010895A1E21A2EBE
:10156000AA1BBB1BFD010DC0AA1FBB1FEE1FFF1F47
:10157000A217B307E407F50720F0A21BB30BE40B97
:10158000F50B661F771F881F991F1A9469F76095DE
:101590007095809590959B01AC01BD01CF01089598
:1015A000EE0FFF1F0590F491E02D09940E94E90AC7
:1015B000A59F900DB49F900DA49F800D911D1124A7
:1015C0000895B7FF0C94D60A0E94D60A821B930B8B
:1015D0000895A29FB001B39FC001A39F700D811D0C
:1015E0001124911DB29F700D811D1124911D08952C
:0415F000F894FFCF9D
:1015F4000078E6D58B040506070302010001020307
:101604000000000000010101010000000010204062
:10161400800804020102040801000000009601D5BC
:10162400000201CB013301110125013702E9023F18
:1016340001E0017997AF97B297B597B997BD97C075
:1016440097C497C797CB97CF97D397D797DA97DE57
:1016540097E297E597E997EC97EF97F297F697FA61
:1016640097FE970198049808980C98109814981766
:10167400981B981F982398269829982C982F98326D
:1016840098359838983B983D983F984398459848A2
:10169400984B984E985198549857985A985D9860DA
:1016A400986398669869986C984B986F9872987537
:1016B4009878987B987E988198849887988A988D52
:1016C4009890989398969899989C989F98A298A582
:1016D40098A898AB98AE98B198B498B798BA98BDB2
:1016E40098C098C398C698C998CC98CF98D298D5E2
:1016F40098D898DB98DE98E198E498E798EA98ED12
:1017040098F098F398F698F998FC98FF9802990540
:101714009908990B990E991199149917991A991D69
:10172400992099239926992999EC972C99EF973028
:101734009930315353534D0D0A000A70726F746F10
:10174400636F6C206572726F723A206C696E653AD1
:101754002025642C2070756C7365733A2025642CE5
:10176400206D6963726F733A2025642C2073796D40
:10177400626F6C733A20000A756E7265636F7665EA
:101784007261626C652064617461206572726F724B
:101794003A2073796D626F6C733A20005C78000AAA
:1017A40051756575652066756C6C00C3B700C39789
:1017B40000E2889A00E288AB00CEA300E296B6006D
:1017C400CF8000E2888200E289A400E289A500E2D9
:1017D40089A000CEB100E2869200E2869000C2B5F4
:1017E40000E2908A00C2B000C2AB00C2BB00E28A31
:1017F400A600E2828100E2828200C2B200C2B3008B
:10180400E1B5A200E2B1BC00E280A500E281B10032
:10181400CAB200E1B58F00E281BF00E288A000C334
:101824008000C38200C38800C38A00C38B00C38EB8
:1018340000C38F00C2B40060005E004332A8007E83
:1018440000C39900C39B00C2A300C2AF00C39D00A4
:10185400C3BD00CB9A00C38700C3A700C39100C3D4
:10186400B100C2A100C2BF00C2A400C2A500C2A7A9
:1018740000C69200C2A200C3A200C3AA00C3B4005F
:10188400C3BB00C3A100C3A900C3B300C3BA00C350
:10189400A000C3A800C3B200C3B900C3A400C3AB73
:1018A40000C3B600C3BC00C38500C3AE00C3980028
:1018B400C38600C3A500C3AD00C3B800C3A600C35C
:1018C4008400C3AC00C39600C39C00C38900C3AFAB
:1018D40000CEB200C39400C38100C38300C3A3003D
:1018E400C39000C3B000C38D00C38C00C39300C376
:1018F4009200C39500C3B500C5A000C5A100C39A5A
:1019040000C5B800C3BF00C39E00C3BE00C2B70079
:10191400CEBC00C2B600C2BE00C2AD00C2BC00C292
:0F192400BD00C2AA00C2BA00E296A000C2B10084
:00000001FF
